:020000040000FA
:0400000080EF00F09D
:020004000000FA
:10010000B0EC00F08B9E8B8C82B0A8EF00F0825098
:100110000B0B0A0802E082EF00F08B8E8B8C82A220
:10012000A1EF00F082B49AEF00F082A69AEF00F0FF
:100130008DEF00F08B9E8B8C82B0A1EF00F09AEFD8
:1001400000F08B8E8B9C8250030BDCE0A1EF00F063
:100150008B8E8B9C0A0E506EA0EC02F082EF00F0AA
:0E0160000F013A6B8B6A826A3F0E946E12009A
:1005000050520DE0190E526E190E516E512E86EF9B
:1005100002F0522E84EF02F0502E82EF02F0120011
:1005200050520DE0FA0E526E190E516E512E96EF8A
:1005300002F0522E94EF02F0502E92EF02F01200D1
:10054000505212E00A0E536EFA0E526E190E516E90
:10055000512EA8EF02F0522EA6EF02F0532EA4EF78
:0A05600002F0502EA2EF02F012008C
:020000040030CA
:0100010023DB
:010002001FDE
:010003003CC0
:01000500BC3E
:010006008178
:010008000FE8
:01000900C036
:01000A000FE6
:01000B00E014
:01000C000FE4
:01000D0040B2
:00000001FF
